{
  "contractName": "SolnSquareVerifier",
  "abi": [
    {
      "inputs": [
        {
          "internalType": "string",
          "name": "name",
          "type": "string"
        },
        {
          "internalType": "string",
          "name": "symbol",
          "type": "string"
        }
      ],
      "payable": false,
      "stateMutability": "nonpayable",
      "type": "constructor"
    },
    {
      "anonymous": false,
      "inputs": [
        {
          "indexed": true,
          "internalType": "address",
          "name": "owner",
          "type": "address"
        },
        {
          "indexed": true,
          "internalType": "address",
          "name": "approved",
          "type": "address"
        },
        {
          "indexed": true,
          "internalType": "uint256",
          "name": "tokenId",
          "type": "uint256"
        }
      ],
      "name": "Approval",
      "type": "event"
    },
    {
      "anonymous": false,
      "inputs": [
        {
          "indexed": true,
          "internalType": "address",
          "name": "owner",
          "type": "address"
        },
        {
          "indexed": true,
          "internalType": "address",
          "name": "operator",
          "type": "address"
        },
        {
          "indexed": false,
          "internalType": "bool",
          "name": "approved",
          "type": "bool"
        }
      ],
      "name": "ApprovalForAll",
      "type": "event"
    },
    {
      "anonymous": false,
      "inputs": [
        {
          "indexed": false,
          "internalType": "address",
          "name": "_owner",
          "type": "address"
        }
      ],
      "name": "OwnershipIsTransfered",
      "type": "event"
    },
    {
      "anonymous": false,
      "inputs": [
        {
          "indexed": false,
          "internalType": "address",
          "name": "triggerAddress",
          "type": "address"
        }
      ],
      "name": "Paused",
      "type": "event"
    },
    {
      "anonymous": false,
      "inputs": [
        {
          "components": [
            {
              "internalType": "uint256",
              "name": "_index",
              "type": "uint256"
            },
            {
              "internalType": "address",
              "name": "_address",
              "type": "address"
            }
          ],
          "indexed": false,
          "internalType": "struct SolnSquareVerifier.SolutionsStruct",
          "name": "solutionsStruct",
          "type": "tuple"
        }
      ],
      "name": "SolutionIsAdded",
      "type": "event"
    },
    {
      "anonymous": false,
      "inputs": [
        {
          "indexed": true,
          "internalType": "address",
          "name": "from",
          "type": "address"
        },
        {
          "indexed": true,
          "internalType": "address",
          "name": "to",
          "type": "address"
        },
        {
          "indexed": true,
          "internalType": "uint256",
          "name": "tokenId",
          "type": "uint256"
        }
      ],
      "name": "Transfer",
      "type": "event"
    },
    {
      "anonymous": false,
      "inputs": [
        {
          "indexed": false,
          "internalType": "address",
          "name": "triggerAddress",
          "type": "address"
        }
      ],
      "name": "Unpaused",
      "type": "event"
    },
    {
      "constant": true,
      "inputs": [
        {
          "internalType": "bytes32",
          "name": "_myid",
          "type": "bytes32"
        },
        {
          "internalType": "string",
          "name": "_result",
          "type": "string"
        }
      ],
      "name": "__callback",
      "outputs": [],
      "payable": false,
      "stateMutability": "pure",
      "type": "function"
    },
    {
      "constant": true,
      "inputs": [
        {
          "internalType": "bytes32",
          "name": "_myid",
          "type": "bytes32"
        },
        {
          "internalType": "string",
          "name": "_result",
          "type": "string"
        },
        {
          "internalType": "bytes",
          "name": "_proof",
          "type": "bytes"
        }
      ],
      "name": "__callback",
      "outputs": [],
      "payable": false,
      "stateMutability": "pure",
      "type": "function"
    },
    {
      "constant": false,
      "inputs": [
        {
          "internalType": "address",
          "name": "to",
          "type": "address"
        },
        {
          "internalType": "uint256",
          "name": "tokenId",
          "type": "uint256"
        }
      ],
      "name": "approve",
      "outputs": [],
      "payable": false,
      "stateMutability": "nonpayable",
      "type": "function"
    },
    {
      "constant": true,
      "inputs": [
        {
          "internalType": "address",
          "name": "owner",
          "type": "address"
        }
      ],
      "name": "balanceOf",
      "outputs": [
        {
          "internalType": "uint256",
          "name": "",
          "type": "uint256"
        }
      ],
      "payable": false,
      "stateMutability": "view",
      "type": "function"
    },
    {
      "constant": true,
      "inputs": [
        {
          "internalType": "uint256",
          "name": "tokenId",
          "type": "uint256"
        }
      ],
      "name": "getApproved",
      "outputs": [
        {
          "internalType": "address",
          "name": "",
          "type": "address"
        }
      ],
      "payable": false,
      "stateMutability": "view",
      "type": "function"
    },
    {
      "constant": true,
      "inputs": [],
      "name": "getBaseTokenURI",
      "outputs": [
        {
          "internalType": "string",
          "name": "",
          "type": "string"
        }
      ],
      "payable": false,
      "stateMutability": "view",
      "type": "function"
    },
    {
      "constant": true,
      "inputs": [],
      "name": "getName",
      "outputs": [
        {
          "internalType": "string",
          "name": "",
          "type": "string"
        }
      ],
      "payable": false,
      "stateMutability": "view",
      "type": "function"
    },
    {
      "constant": true,
      "inputs": [],
      "name": "getOwner",
      "outputs": [
        {
          "internalType": "address",
          "name": "",
          "type": "address"
        }
      ],
      "payable": false,
      "stateMutability": "view",
      "type": "function"
    },
    {
      "constant": true,
      "inputs": [],
      "name": "getSymbol",
      "outputs": [
        {
          "internalType": "string",
          "name": "",
          "type": "string"
        }
      ],
      "payable": false,
      "stateMutability": "view",
      "type": "function"
    },
    {
      "constant": true,
      "inputs": [
        {
          "internalType": "address",
          "name": "owner",
          "type": "address"
        },
        {
          "internalType": "address",
          "name": "operator",
          "type": "address"
        }
      ],
      "name": "isApprovedForAll",
      "outputs": [
        {
          "internalType": "bool",
          "name": "",
          "type": "bool"
        }
      ],
      "payable": false,
      "stateMutability": "view",
      "type": "function"
    },
    {
      "constant": false,
      "inputs": [
        {
          "internalType": "address",
          "name": "to",
          "type": "address"
        },
        {
          "internalType": "uint256",
          "name": "tokenId",
          "type": "uint256"
        }
      ],
      "name": "mint",
      "outputs": [
        {
          "internalType": "bool",
          "name": "",
          "type": "bool"
        }
      ],
      "payable": false,
      "stateMutability": "nonpayable",
      "type": "function"
    },
    {
      "constant": true,
      "inputs": [
        {
          "internalType": "uint256",
          "name": "tokenId",
          "type": "uint256"
        }
      ],
      "name": "ownerOf",
      "outputs": [
        {
          "internalType": "address",
          "name": "",
          "type": "address"
        }
      ],
      "payable": false,
      "stateMutability": "view",
      "type": "function"
    },
    {
      "constant": false,
      "inputs": [
        {
          "internalType": "address",
          "name": "from",
          "type": "address"
        },
        {
          "internalType": "address",
          "name": "to",
          "type": "address"
        },
        {
          "internalType": "uint256",
          "name": "tokenId",
          "type": "uint256"
        }
      ],
      "name": "safeTransferFrom",
      "outputs": [],
      "payable": false,
      "stateMutability": "nonpayable",
      "type": "function"
    },
    {
      "constant": false,
      "inputs": [
        {
          "internalType": "address",
          "name": "from",
          "type": "address"
        },
        {
          "internalType": "address",
          "name": "to",
          "type": "address"
        },
        {
          "internalType": "uint256",
          "name": "tokenId",
          "type": "uint256"
        },
        {
          "internalType": "bytes",
          "name": "_data",
          "type": "bytes"
        }
      ],
      "name": "safeTransferFrom",
      "outputs": [],
      "payable": false,
      "stateMutability": "nonpayable",
      "type": "function"
    },
    {
      "constant": false,
      "inputs": [
        {
          "internalType": "address",
          "name": "to",
          "type": "address"
        },
        {
          "internalType": "bool",
          "name": "approved",
          "type": "bool"
        }
      ],
      "name": "setApprovalForAll",
      "outputs": [],
      "payable": false,
      "stateMutability": "nonpayable",
      "type": "function"
    },
    {
      "constant": false,
      "inputs": [
        {
          "internalType": "bool",
          "name": "status",
          "type": "bool"
        }
      ],
      "name": "setter",
      "outputs": [],
      "payable": false,
      "stateMutability": "nonpayable",
      "type": "function"
    },
    {
      "constant": true,
      "inputs": [
        {
          "internalType": "bytes4",
          "name": "interfaceId",
          "type": "bytes4"
        }
      ],
      "name": "supportsInterface",
      "outputs": [
        {
          "internalType": "bool",
          "name": "",
          "type": "bool"
        }
      ],
      "payable": false,
      "stateMutability": "view",
      "type": "function"
    },
    {
      "constant": true,
      "inputs": [
        {
          "internalType": "uint256",
          "name": "index",
          "type": "uint256"
        }
      ],
      "name": "tokenByIndex",
      "outputs": [
        {
          "internalType": "uint256",
          "name": "",
          "type": "uint256"
        }
      ],
      "payable": false,
      "stateMutability": "view",
      "type": "function"
    },
    {
      "constant": true,
      "inputs": [
        {
          "internalType": "address",
          "name": "owner",
          "type": "address"
        },
        {
          "internalType": "uint256",
          "name": "index",
          "type": "uint256"
        }
      ],
      "name": "tokenOfOwnerByIndex",
      "outputs": [
        {
          "internalType": "uint256",
          "name": "",
          "type": "uint256"
        }
      ],
      "payable": false,
      "stateMutability": "view",
      "type": "function"
    },
    {
      "constant": true,
      "inputs": [
        {
          "internalType": "uint256",
          "name": "tokenId",
          "type": "uint256"
        }
      ],
      "name": "tokenURI",
      "outputs": [
        {
          "internalType": "string",
          "name": "",
          "type": "string"
        }
      ],
      "payable": false,
      "stateMutability": "view",
      "type": "function"
    },
    {
      "constant": true,
      "inputs": [],
      "name": "totalSupply",
      "outputs": [
        {
          "internalType": "uint256",
          "name": "",
          "type": "uint256"
        }
      ],
      "payable": false,
      "stateMutability": "view",
      "type": "function"
    },
    {
      "constant": false,
      "inputs": [
        {
          "internalType": "address",
          "name": "from",
          "type": "address"
        },
        {
          "internalType": "address",
          "name": "to",
          "type": "address"
        },
        {
          "internalType": "uint256",
          "name": "tokenId",
          "type": "uint256"
        }
      ],
      "name": "transferFrom",
      "outputs": [],
      "payable": false,
      "stateMutability": "nonpayable",
      "type": "function"
    },
    {
      "constant": false,
      "inputs": [
        {
          "internalType": "address",
          "name": "newOwner",
          "type": "address"
        }
      ],
      "name": "transferOwnership",
      "outputs": [],
      "payable": false,
      "stateMutability": "nonpayable",
      "type": "function"
    },
    {
      "constant": false,
      "inputs": [
        {
          "internalType": "uint256",
          "name": "_index",
          "type": "uint256"
        },
        {
          "internalType": "address",
          "name": "_address",
          "type": "address"
        }
      ],
      "name": "addSolution",
      "outputs": [],
      "payable": false,
      "stateMutability": "nonpayable",
      "type": "function"
    }
  ],
  "bytecode": "0x60806040523480156200001157600080fd5b5060405162003b0338038062003b03833981810160405262000037919081019062000547565b818181816040518060600160405280603f815260200162003ac4603f9139336000806101000a81548173ffffffffffffffffffffffffffffffffffffffff021916908373ffffffffffffffffffffffffffffffffffffffff1602179055507ff260d1206b064dfcd9f66a6d0ea985c3bbc2e66256f9c81129870a94bfbfe4146000809054906101000a900473ffffffffffffffffffffffffffffffffffffffff16604051620000e7919062000644565b60405180910390a16200010160006200025e60201b60201c565b620001196301ffc9a760e01b6200039c60201b60201c565b620001316380ac58cd60e01b6200039c60201b60201c565b6200014963780e9d6360e01b6200039c60201b60201c565b82600f9080519060200190620001619291906200043c565b5081601090805190602001906200017a9291906200043c565b508060119080519060200190620001939291906200043c565b50620001ac635b5e139f60e01b6200039c60201b60201c565b50505033601360006101000a81548173ffffffffffffffffffffffffffffffffffffffff021916908373ffffffffffffffffffffffffffffffffffffffff1602179055508160149080519060200190620002089291906200043c565b508060159080519060200190620002219291906200043c565b506040518060600160405280603f815260200162003ac4603f913960169080519060200190620002539291906200043c565b5050505050620007b2565b6000809054906101000a900473ffffffffffffffffffffffffffffffffffffffff1673ffffffffffffffffffffffffffffffffffffffff163373ffffffffffffffffffffffffffffffffffffffff1614620002f0576040517f08c379a0000000000000000000000000000000000000000000000000000000008152600401620002e7906200067e565b60405180910390fd5b80600060146101000a81548160ff021916908315150217905550600060149054906101000a900460ff16156200035f577f62e78cea01bee320cd4e420270b5ea74000d11b0c9f74754ebdbfc544b05a2583360405162000351919062000661565b60405180910390a162000399565b7f5db9ee0a495bf2e6ff9c91a7834c1ba4fdd244a5e8aa4e537bd38aeae4b073aa3360405162000390919062000661565b60405180910390a15b50565b63ffffffff60e01b817bffffffffffffffffffffffffffffffffffffffffffffffffffffffff19161415620003d057600080fd5b6001806000837bffffffffffffffffffffffffffffffffffffffffffffffffffffffff19167bffffffffffffffffffffffffffffffffffffffffffffffffffffffff1916815260200190815260200160002060006101000a81548160ff02191690831515021790555050565b828054600181600116156101000203166002900490600052602060002090601f016020900481019282601f106200047f57805160ff1916838001178555620004b0565b82800160010185558215620004b0579182015b82811115620004af57825182559160200191906001019062000492565b5b509050620004bf9190620004c3565b5090565b620004e891905b80821115620004e4576000816000905550600101620004ca565b5090565b90565b600082601f830112620004fd57600080fd5b8151620005146200050e82620006ce565b620006a0565b915080825260208301602083018583830111156200053157600080fd5b6200053e8382846200077c565b50505092915050565b600080604083850312156200055b57600080fd5b600083015167ffffffffffffffff8111156200057657600080fd5b6200058485828601620004eb565b925050602083015167ffffffffffffffff811115620005a257600080fd5b620005b085828601620004eb565b9150509250929050565b620005c58162000740565b82525050565b620005d6816200070c565b82525050565b6000620005eb602783620006fb565b91507f43616c6c6564206279206f74686572206163636f756e742c206e6f742074686560008301527f206f776e657221000000000000000000000000000000000000000000000000006020830152604082019050919050565b60006020820190506200065b6000830184620005cb565b92915050565b6000602082019050620006786000830184620005ba565b92915050565b600060208201905081810360008301526200069981620005dc565b9050919050565b6000604051905081810181811067ffffffffffffffff82111715620006c457600080fd5b8060405250919050565b600067ffffffffffffffff821115620006e657600080fd5b601f19601f8301169050602081019050919050565b600082825260208201905092915050565b6000620007198262000720565b9050919050565b600073ffffffffffffffffffffffffffffffffffffffff82169050919050565b60006200074d8262000754565b9050919050565b6000620007618262000768565b9050919050565b6000620007758262000720565b9050919050565b60005b838110156200079c5780820151818401526020810190506200077f565b83811115620007ac576000848401525b50505050565b61330280620007c26000396000f3fe608060405234801561001057600080fd5b50600436106101585760003560e01c806342842e0e116100c3578063b88d4fde1161007c578063b88d4fde146103e9578063bdc32be014610405578063c87b56dd14610423578063ccd0ef6914610453578063e985e9c51461046f578063f2fde38b1461049f57610158565b806342842e0e146103035780634f6ccce71461031f5780636352211e1461034f57806370a082311461037f578063893d20e8146103af578063a22cb465146103cd57610158565b806318160ddd1161011557806318160ddd1461023157806323b872dd1461024f57806327dc297e1461026b5780632f745c591461028757806338bbfa50146102b757806340c10f19146102d357610158565b80630159ead91461015d57806301ffc9a714610179578063081812fc146101a9578063095ea7b3146101d957806315070401146101f557806317d7de7c14610213575b600080fd5b61017760048036036101729190810190612807565b6104bb565b005b610193600480360361018e9190810190612903565b6105f0565b6040516101a09190612eb5565b60405180910390f35b6101c360048036036101be9190810190612955565b610658565b6040516101d09190612e33565b60405180910390f35b6101f360048036036101ee91908101906127cb565b6106dd565b005b6101fd61088a565b60405161020a9190612ed0565b60405180910390f35b61021b61092c565b6040516102289190612ed0565b60405180910390f35b6102396109ce565b604051610246919061306d565b60405180910390f35b610269600480360361026491908101906126c5565b6109db565b005b61028560048036036102809190810190612830565b6109fe565b005b6102a1600480360361029c91908101906127cb565b610a41565b6040516102ae919061306d565b60405180910390f35b6102d160048036036102cc9190810190612884565b610ab4565b005b6102ed60048036036102e891908101906127cb565b610ab9565b6040516102fa9190612eb5565b60405180910390f35b61031d600480360361031891908101906126c5565b610bbe565b005b61033960048036036103349190810190612955565b610bde565b604051610346919061306d565b60405180910390f35b61036960048036036103649190810190612955565b610c12565b6040516103769190612e33565b60405180910390f35b61039960048036036103949190810190612660565b610cc4565b6040516103a6919061306d565b60405180910390f35b6103b7610d83565b6040516103c49190612e33565b60405180910390f35b6103e760048036036103e2919081019061278f565b610dac565b005b61040360048036036103fe9190810190612714565b610ee2565b005b61040d610f08565b60405161041a9190612ed0565b60405180910390f35b61043d60048036036104389190810190612955565b610faa565b60405161044a9190612ed0565b60405180910390f35b61046d6004803603610468919081019061297e565b611071565b005b61048960048036036104849190810190612689565b6111cc565b6040516104969190612eb5565b60405180910390f35b6104b960048036036104b49190810190612660565b611260565b005b6000809054906101000a900473ffffffffffffffffffffffffffffffffffffffff1673ffffffffffffffffffffffffffffffffffffffff163373ffffffffffffffffffffffffffffffffffffffff161461054a576040517f08c379a000000000000000000000000000000000000000000000000000000000815260040161054190612f32565b60405180910390fd5b80600060146101000a81548160ff021916908315150217905550600060149054906101000a900460ff16156105b5577f62e78cea01bee320cd4e420270b5ea74000d11b0c9f74754ebdbfc544b05a258336040516105a89190612e4e565b60405180910390a16105ed565b7f5db9ee0a495bf2e6ff9c91a7834c1ba4fdd244a5e8aa4e537bd38aeae4b073aa336040516105e49190612e4e565b60405180910390a15b50565b600060016000837bffffffffffffffffffffffffffffffffffffffffffffffffffffffff19167bffffffffffffffffffffffffffffffffffffffffffffffffffffffff1916815260200190815260200160002060009054906101000a900460ff169050919050565b6000610663826113fa565b6106a2576040517f08c379a000000000000000000000000000000000000000000000000000000000815260040161069990612fb2565b60405180910390fd5b6003600083815260200190815260200160002060009054906101000a900473ffffffffffffffffffffffffffffffffffffffff169050919050565b60006106e882610c12565b90508273ffffffffffffffffffffffffffffffffffffffff168173ffffffffffffffffffffffffffffffffffffffff161415610759576040517f08c379a000000000000000000000000000000000000000000000000000000000815260040161075090612f52565b60405180910390fd5b3373ffffffffffffffffffffffffffffffffffffffff168173ffffffffffffffffffffffffffffffffffffffff161480610799575061079881336111cc565b5b6107d8576040517f08c379a00000000000000000000000000000000000000000000000000000000081526004016107cf90612ef2565b60405180910390fd5b826003600084815260200190815260200160002060006101000a81548173ffffffffffffffffffffffffffffffffffffffff021916908373ffffffffffffffffffffffffffffffffffffffff160217905550818373ffffffffffffffffffffffffffffffffffffffff168273ffffffffffffffffffffffffffffffffffffffff167f8c5be1e5ebec7d5bd14f71427d1e84f3dd0314c0f7b2291e5b200ac8c7c3b92560405160405180910390a4505050565b606060108054600181600116156101000203166002900480601f0160208091040260200160405190810160405280929190818152602001828054600181600116156101000203166002900480156109225780601f106108f757610100808354040283529160200191610922565b820191906000526020600020905b81548152906001019060200180831161090557829003601f168201915b5050505050905090565b6060600f8054600181600116156101000203166002900480601f0160208091040260200160405190810160405280929190818152602001828054600181600116156101000203166002900480156109c45780601f10610999576101008083540402835291602001916109c4565b820191906000526020600020905b8154815290600101906020018083116109a757829003601f168201915b5050505050905090565b6000600880549050905090565b6109e5338261146c565b6109ee57600080fd5b6109f9838383611501565b505050565b610a3d828260006040519080825280601f01601f191660200182016040528015610a375781602001600182028038833980820191505090505b50610ab4565b5050565b6000610a4c83610cc4565b8210610a5757600080fd5b600660008473ffffffffffffffffffffffffffffffffffffffff1673ffffffffffffffffffffffffffffffffffffffff1681526020019081526020016000208281548110610aa157fe5b9060005260206000200154905092915050565b505050565b60008060009054906101000a900473ffffffffffffffffffffffffffffffffffffffff1673ffffffffffffffffffffffffffffffffffffffff163373ffffffffffffffffffffffffffffffffffffffff1614610b4a576040517f08c379a0000000000000000000000000000000000000000000000000000000008152600401610b4190612f32565b60405180910390fd5b60011515600060149054906101000a900460ff1615151415610ba1576040517f08c379a0000000000000000000000000000000000000000000000000000000008152600401610b9890612fd2565b60405180910390fd5b610bab8383611525565b610bb482611546565b6001905092915050565b610bd983838360405180602001604052806000815250610ee2565b505050565b6000610be86109ce565b8210610bf357600080fd5b60088281548110610c0057fe5b90600052602060002001549050919050565b6000806002600084815260200190815260200160002060009054906101000a900473ffffffffffffffffffffffffffffffffffffffff169050600073ffffffffffffffffffffffffffffffffffffffff168173ffffffffffffffffffffffffffffffffffffffff161415610cbb576040517f08c379a0000000000000000000000000000000000000000000000000000000008152600401610cb290612f12565b60405180910390fd5b80915050919050565b60008073ffffffffffffffffffffffffffffffffffffffff168273ffffffffffffffffffffffffffffffffffffffff161415610d35576040517f08c379a0000000000000000000000000000000000000000000000000000000008152600401610d2c90612f12565b60405180910390fd5b610d7c600460008473ffffffffffffffffffffffffffffffffffffffff1673ffffffffffffffffffffffffffffffffffffffff168152602001908152602001600020611664565b9050919050565b60008060009054906101000a900473ffffffffffffffffffffffffffffffffffffffff16905090565b3373ffffffffffffffffffffffffffffffffffffffff168273ffffffffffffffffffffffffffffffffffffffff161415610de557600080fd5b80600560003373ffffffffffffffffffffffffffffffffffffffff1673ffffffffffffffffffffffffffffffffffffffff16815260200190815260200160002060008473ffffffffffffffffffffffffffffffffffffffff1673ffffffffffffffffffffffffffffffffffffffff16815260200190815260200160002060006101000a81548160ff0219169083151502179055508173ffffffffffffffffffffffffffffffffffffffff163373ffffffffffffffffffffffffffffffffffffffff167f17307eab39ab6107e8899845ad3d59bd9653f200f220920489ca2b5937696c3183604051610ed69190612eb5565b60405180910390a35050565b610eed8484846109db565b610ef984848484611672565b610f0257600080fd5b50505050565b606060118054600181600116156101000203166002900480601f016020809104026020016040519081016040528092919081815260200182805460018160011615610100020316600290048015610fa05780601f10610f7557610100808354040283529160200191610fa0565b820191906000526020600020905b815481529060010190602001808311610f8357829003601f168201915b5050505050905090565b6060610fb5826113fa565b610fbe57600080fd5b601260008381526020019081526020016000208054600181600116156101000203166002900480601f0160208091040260200160405190810160405280929190818152602001828054600181600116156101000203166002900480156110655780601f1061103a57610100808354040283529160200191611065565b820191906000526020600020905b81548152906001019060200180831161104857829003601f168201915b50505050509050919050565b611079612439565b60405180604001604052808481526020018373ffffffffffffffffffffffffffffffffffffffff168152509050601781908060018154018082558091505090600182039060005260206000209060020201600090919290919091506000820151816000015560208201518160010160006101000a81548173ffffffffffffffffffffffffffffffffffffffff021916908373ffffffffffffffffffffffffffffffffffffffff16021790555050505080601860008581526020019081526020016000206000820151816000015560208201518160010160006101000a81548173ffffffffffffffffffffffffffffffffffffffff021916908373ffffffffffffffffffffffffffffffffffffffff1602179055509050507f28a597ac1f02f823f178eee5a6b9c44c9c6ca694679295240b2b0a43c7083cc5816040516111bf9190613052565b60405180910390a1505050565b6000600560008473ffffffffffffffffffffffffffffffffffffffff1673ffffffffffffffffffffffffffffffffffffffff16815260200190815260200160002060008373ffffffffffffffffffffffffffffffffffffffff1673ffffffffffffffffffffffffffffffffffffffff16815260200190815260200160002060009054906101000a900460ff16905092915050565b6000809054906101000a900473ffffffffffffffffffffffffffffffffffffffff1673ffffffffffffffffffffffffffffffffffffffff163373ffffffffffffffffffffffffffffffffffffffff16146112ef576040517f08c379a00000000000000000000000000000000000000000000000000000000081526004016112e690612f32565b60405180910390fd5b600073ffffffffffffffffffffffffffffffffffffffff168173ffffffffffffffffffffffffffffffffffffffff16141561135f576040517f08c379a000000000000000000000000000000000000000000000000000000000815260040161135690613032565b60405180910390fd5b806000806101000a81548173ffffffffffffffffffffffffffffffffffffffff021916908373ffffffffffffffffffffffffffffffffffffffff1602179055507ff260d1206b064dfcd9f66a6d0ea985c3bbc2e66256f9c81129870a94bfbfe4146000809054906101000a900473ffffffffffffffffffffffffffffffffffffffff166040516113ef9190612e33565b60405180910390a150565b6000806002600084815260200190815260200160002060009054906101000a900473ffffffffffffffffffffffffffffffffffffffff169050600073ffffffffffffffffffffffffffffffffffffffff168173ffffffffffffffffffffffffffffffffffffffff161415915050919050565b60008061147883610c12565b90508073ffffffffffffffffffffffffffffffffffffffff168473ffffffffffffffffffffffffffffffffffffffff1614806114e757508373ffffffffffffffffffffffffffffffffffffffff166114cf84610658565b73ffffffffffffffffffffffffffffffffffffffff16145b806114f857506114f781856111cc565b5b91505092915050565b61150c838383611789565b61151683826119b8565b6115208282611b56565b505050565b61152f8282611c1d565b6115398282611b56565b61154281611dd3565b5050565b61154f816113fa565b61158e576040517f08c379a000000000000000000000000000000000000000000000000000000000815260040161158590612fb2565b60405180910390fd5b61163a60118054600181600116156101000203166002900480601f0160208091040260200160405190810160405280929190818152602001828054600181600116156101000203166002900480156116275780601f106115fc57610100808354040283529160200191611627565b820191906000526020600020905b81548152906001019060200180831161160a57829003601f168201915b505050505061163583611e1f565b611f4c565b601260008381526020019081526020016000209080519060200190611660929190612469565b5050565b600081600001549050919050565b60006116938473ffffffffffffffffffffffffffffffffffffffff16611f90565b6116a05760019050611781565b60008473ffffffffffffffffffffffffffffffffffffffff1663150b7a02338887876040518563ffffffff1660e01b81526004016116e19493929190612e69565b602060405180830381600087803b1580156116fb57600080fd5b505af115801561170f573d6000803e3d6000fd5b505050506040513d601f19601f82011682018060405250611733919081019061292c565b905063150b7a0260e01b7bffffffffffffffffffffffffffffffffffffffffffffffffffffffff1916817bffffffffffffffffffffffffffffffffffffffffffffffffffffffff1916149150505b949350505050565b61179281610c12565b73ffffffffffffffffffffffffffffffffffffffff168373ffffffffffffffffffffffffffffffffffffffff16146117ff576040517f08c379a00000000000000000000000000000000000000000000000000000000081526004016117f690613012565b60405180910390fd5b600073ffffffffffffffffffffffffffffffffffffffff168273ffffffffffffffffffffffffffffffffffffffff16141561186f576040517f08c379a000000000000000000000000000000000000000000000000000000000815260040161186690612f92565b60405180910390fd5b61187881611fdb565b6118bf600460008573ffffffffffffffffffffffffffffffffffffffff1673ffffffffffffffffffffffffffffffffffffffff168152602001908152602001600020612099565b611906600460008473ffffffffffffffffffffffffffffffffffffffff1673ffffffffffffffffffffffffffffffffffffffff1681526020019081526020016000206120bc565b816002600083815260200190815260200160002060006101000a81548173ffffffffffffffffffffffffffffffffffffffff021916908373ffffffffffffffffffffffffffffffffffffffff160217905550808273ffffffffffffffffffffffffffffffffffffffff168473ffffffffffffffffffffffffffffffffffffffff167fddf252ad1be2c89b69c2b068fc378daa952ba7f163c4a11628f55a4df523b3ef60405160405180910390a4505050565b6000611a106001600660008673ffffffffffffffffffffffffffffffffffffffff1673ffffffffffffffffffffffffffffffffffffffff168152602001908152602001600020805490506120d290919063ffffffff16565b9050600060076000848152602001908152602001600020549050818114611afd576000600660008673ffffffffffffffffffffffffffffffffffffffff1673ffffffffffffffffffffffffffffffffffffffff1681526020019081526020016000208381548110611a7d57fe5b9060005260206000200154905080600660008773ffffffffffffffffffffffffffffffffffffffff1673ffffffffffffffffffffffffffffffffffffffff1681526020019081526020016000208381548110611ad557fe5b9060005260206000200181905550816007600083815260200190815260200160002081905550505b600660008573ffffffffffffffffffffffffffffffffffffffff1673ffffffffffffffffffffffffffffffffffffffff168152602001908152602001600020805480919060019003611b4f91906124e9565b5050505050565b600660008373ffffffffffffffffffffffffffffffffffffffff1673ffffffffffffffffffffffffffffffffffffffff168152602001908152602001600020805490506007600083815260200190815260200160002081905550600660008373ffffffffffffffffffffffffffffffffffffffff1673ffffffffffffffffffffffffffffffffffffffff1681526020019081526020016000208190806001815401808255809150509060018203906000526020600020016000909192909190915055505050565b6000809050611c2b826113fa565b15611c6b576040517f08c379a0000000000000000000000000000000000000000000000000000000008152600401611c6290612ff2565b60405180910390fd5b8073ffffffffffffffffffffffffffffffffffffffff168373ffffffffffffffffffffffffffffffffffffffff161415611cda576040517f08c379a0000000000000000000000000000000000000000000000000000000008152600401611cd190612f72565b60405180910390fd5b611d21600460008573ffffffffffffffffffffffffffffffffffffffff1673ffffffffffffffffffffffffffffffffffffffff1681526020019081526020016000206120bc565b826002600084815260200190815260200160002060006101000a81548173ffffffffffffffffffffffffffffffffffffffff021916908373ffffffffffffffffffffffffffffffffffffffff160217905550818373ffffffffffffffffffffffffffffffffffffffff168273ffffffffffffffffffffffffffffffffffffffff167fddf252ad1be2c89b69c2b068fc378daa952ba7f163c4a11628f55a4df523b3ef60405160405180910390a4505050565b6008805490506009600083815260200190815260200160002081905550600881908060018154018082558091505090600182039060005260206000200160009091929091909150555050565b60606000821415611e67576040518060400160405280600181526020017f30000000000000000000000000000000000000000000000000000000000000008152509050611f47565b600082905060005b60008214611e91578080600101915050600a8281611e8957fe5b049150611e6f565b6060816040519080825280601f01601f191660200182016040528015611ec65781602001600182028038833980820191505090505b50905060006001830390505b60008614611f3f57600a8681611ee457fe5b0660300160f81b82828060019003935081518110611efe57fe5b60200101907effffffffffffffffffffffffffffffffffffffffffffffffffffffffffffff1916908160001a905350600a8681611f3757fe5b049550611ed2565b819450505050505b919050565b6060611f88838360405180602001604052806000815250604051806020016040528060008152506040518060200160405280600081525061211c565b905092915050565b60008060007fc5d2460186f7233c927e7db2dcc703c0e500b653ca82273b7bfad8045d85a47060001b9050833f9150808214158015611fd257506000801b8214155b92505050919050565b600073ffffffffffffffffffffffffffffffffffffffff166003600083815260200190815260200160002060009054906101000a900473ffffffffffffffffffffffffffffffffffffffff1673ffffffffffffffffffffffffffffffffffffffff16146120965760006003600083815260200190815260200160002060006101000a81548173ffffffffffffffffffffffffffffffffffffffff021916908373ffffffffffffffffffffffffffffffffffffffff1602179055505b50565b6120b1600182600001546120d290919063ffffffff16565b816000018190555050565b6001816000016000828254019250508190555050565b600061211483836040518060400160405280601e81526020017f536166654d6174683a207375627472616374696f6e206f766572666c6f7700008152506123de565b905092915050565b6060808690506060869050606086905060608690506060869050606081518351855187518951010101016040519080825280601f01601f1916602001820160405280156121785781602001600182028038833980820191505090505b509050606081905060008090506000809050600090505b88518110156121fd578881815181106121a457fe5b602001015160f81c60f81b8383806001019450815181106121c157fe5b60200101907effffffffffffffffffffffffffffffffffffffffffffffffffffffffffffff1916908160001a905350808060010191505061218f565b600090505b87518110156122705787818151811061221757fe5b602001015160f81c60f81b83838060010194508151811061223457fe5b60200101907effffffffffffffffffffffffffffffffffffffffffffffffffffffffffffff1916908160001a9053508080600101915050612202565b600090505b86518110156122e35786818151811061228a57fe5b602001015160f81c60f81b8383806001019450815181106122a757fe5b60200101907effffffffffffffffffffffffffffffffffffffffffffffffffffffffffffff1916908160001a9053508080600101915050612275565b600090505b8551811015612356578581815181106122fd57fe5b602001015160f81c60f81b83838060010194508151811061231a57fe5b60200101907effffffffffffffffffffffffffffffffffffffffffffffffffffffffffffff1916908160001a90535080806001019150506122e8565b600090505b84518110156123c95784818151811061237057fe5b602001015160f81c60f81b83838060010194508151811061238d57fe5b60200101907effffffffffffffffffffffffffffffffffffffffffffffffffffffffffffff1916908160001a905350808060010191505061235b565b82995050505050505050505095945050505050565b6000838311158290612426576040517f08c379a000000000000000000000000000000000000000000000000000000000815260040161241d9190612ed0565b60405180910390fd5b5060008385039050809150509392505050565b604051806040016040528060008152602001600073ffffffffffffffffffffffffffffffffffffffff1681525090565b828054600181600116156101000203166002900490600052602060002090601f016020900481019282601f106124aa57805160ff19168380011785556124d8565b828001600101855582156124d8579182015b828111156124d75782518255916020019190600101906124bc565b5b5090506124e59190612515565b5090565b8154818355818111156125105781836000526020600020918201910161250f9190612515565b5b505050565b61253791905b8082111561253357600081600090555060010161251b565b5090565b90565b6000813590506125498161324c565b92915050565b60008135905061255e81613263565b92915050565b6000813590506125738161327a565b92915050565b60008135905061258881613291565b92915050565b60008151905061259d81613291565b92915050565b600082601f8301126125b457600080fd5b81356125c76125c2826130b5565b613088565b915080825260208301602083018583830111156125e357600080fd5b6125ee8382846131f9565b50505092915050565b600082601f83011261260857600080fd5b813561261b612616826130e1565b613088565b9150808252602083016020830185838301111561263757600080fd5b6126428382846131f9565b50505092915050565b60008135905061265a816132a8565b92915050565b60006020828403121561267257600080fd5b60006126808482850161253a565b91505092915050565b6000806040838503121561269c57600080fd5b60006126aa8582860161253a565b92505060206126bb8582860161253a565b9150509250929050565b6000806000606084860312156126da57600080fd5b60006126e88682870161253a565b93505060206126f98682870161253a565b925050604061270a8682870161264b565b9150509250925092565b6000806000806080858703121561272a57600080fd5b60006127388782880161253a565b94505060206127498782880161253a565b935050604061275a8782880161264b565b925050606085013567ffffffffffffffff81111561277757600080fd5b612783878288016125a3565b91505092959194509250565b600080604083850312156127a257600080fd5b60006127b08582860161253a565b92505060206127c18582860161254f565b9150509250929050565b600080604083850312156127de57600080fd5b60006127ec8582860161253a565b92505060206127fd8582860161264b565b9150509250929050565b60006020828403121561281957600080fd5b60006128278482850161254f565b91505092915050565b6000806040838503121561284357600080fd5b600061285185828601612564565b925050602083013567ffffffffffffffff81111561286e57600080fd5b61287a858286016125f7565b9150509250929050565b60008060006060848603121561289957600080fd5b60006128a786828701612564565b935050602084013567ffffffffffffffff8111156128c457600080fd5b6128d0868287016125f7565b925050604084013567ffffffffffffffff8111156128ed57600080fd5b6128f9868287016125a3565b9150509250925092565b60006020828403121561291557600080fd5b600061292384828501612579565b91505092915050565b60006020828403121561293e57600080fd5b600061294c8482850161258e565b91505092915050565b60006020828403121561296757600080fd5b60006129758482850161264b565b91505092915050565b6000806040838503121561299157600080fd5b600061299f8582860161264b565b92505060206129b08582860161253a565b9150509250929050565b6129c3816131c3565b82525050565b6129d281613145565b82525050565b6129e181613145565b82525050565b6129f081613157565b82525050565b6000612a018261310d565b612a0b8185613123565b9350612a1b818560208601613208565b612a248161323b565b840191505092915050565b6000612a3a82613118565b612a448185613134565b9350612a54818560208601613208565b612a5d8161323b565b840191505092915050565b6000612a75604483613134565b91507f43616c6c6572206d75737420626520746865206f776e6572206f66207468652060008301527f636f6e7472616374206f72206d75737420626520617070726f76656420666f7260208301527f20616c6c000000000000000000000000000000000000000000000000000000006040830152606082019050919050565b6000612b01600f83613134565b91507f496e76616c6964206164647265737300000000000000000000000000000000006000830152602082019050919050565b6000612b41602783613134565b91507f43616c6c6564206279206f74686572206163636f756e742c206e6f742074686560008301527f206f776e657221000000000000000000000000000000000000000000000000006020830152604082019050919050565b6000612ba7602b83613134565b91507f54686520676976656e206164647265737320697320746865206f776e6572206f60008301527f662074686520746f6b656e0000000000000000000000000000000000000000006020830152604082019050919050565b6000612c0d601883613134565b91507f476976656e206164647265737320697320696e76616c696400000000000000006000830152602082019050919050565b6000612c4d602583613134565b91507f496e76616c696420616464726573732c207472616e73666572206e6f7420616c60008301527f6c6f7765640000000000000000000000000000000000000000000000000000006020830152604082019050919050565b6000612cb3601583613134565b91507f546f6b656e20646f6573206e6f742065786973747300000000000000000000006000830152602082019050919050565b6000612cf3601283613134565b91507f436f6e74726163742069732070617573656400000000000000000000000000006000830152602082019050919050565b6000612d33601a83613134565b91507f476976656e20746f6b656e20616c7265616479206578697374730000000000006000830152602082019050919050565b6000612d73601683613134565b91507f496e76616c69642c206e6f7420746865206f776e6572000000000000000000006000830152602082019050919050565b6000612db3601b83613134565b91507f412076616c6964206164647265737320697320726571756972656400000000006000830152602082019050919050565b604082016000820151612dfc6000850182612e15565b506020820151612e0f60208501826129c9565b50505050565b612e1e816131b9565b82525050565b612e2d816131b9565b82525050565b6000602082019050612e4860008301846129d8565b92915050565b6000602082019050612e6360008301846129ba565b92915050565b6000608082019050612e7e60008301876129ba565b612e8b60208301866129d8565b612e986040830185612e24565b8181036060830152612eaa81846129f6565b905095945050505050565b6000602082019050612eca60008301846129e7565b92915050565b60006020820190508181036000830152612eea8184612a2f565b905092915050565b60006020820190508181036000830152612f0b81612a68565b9050919050565b60006020820190508181036000830152612f2b81612af4565b9050919050565b60006020820190508181036000830152612f4b81612b34565b9050919050565b60006020820190508181036000830152612f6b81612b9a565b9050919050565b60006020820190508181036000830152612f8b81612c00565b9050919050565b60006020820190508181036000830152612fab81612c40565b9050919050565b60006020820190508181036000830152612fcb81612ca6565b9050919050565b60006020820190508181036000830152612feb81612ce6565b9050919050565b6000602082019050818103600083015261300b81612d26565b9050919050565b6000602082019050818103600083015261302b81612d66565b9050919050565b6000602082019050818103600083015261304b81612da6565b9050919050565b60006040820190506130676000830184612de6565b92915050565b60006020820190506130826000830184612e24565b92915050565b6000604051905081810181811067ffffffffffffffff821117156130ab57600080fd5b8060405250919050565b600067ffffffffffffffff8211156130cc57600080fd5b601f19601f8301169050602081019050919050565b600067ffffffffffffffff8211156130f857600080fd5b601f19601f8301169050602081019050919050565b600081519050919050565b600081519050919050565b600082825260208201905092915050565b600082825260208201905092915050565b600061315082613199565b9050919050565b60008115159050919050565b6000819050919050565b60007fffffffff0000000000000000000000000000000000000000000000000000000082169050919050565b600073ffffffffffffffffffffffffffffffffffffffff82169050919050565b6000819050919050565b60006131ce826131d5565b9050919050565b60006131e0826131e7565b9050919050565b60006131f282613199565b9050919050565b82818337600083830152505050565b60005b8381101561322657808201518184015260208101905061320b565b83811115613235576000848401525b50505050565b6000601f19601f8301169050919050565b61325581613145565b811461326057600080fd5b50565b61326c81613157565b811461327757600080fd5b50565b61328381613163565b811461328e57600080fd5b50565b61329a8161316d565b81146132a557600080fd5b50565b6132b1816131b9565b81146132bc57600080fd5b5056fea365627a7a72315820d655f4774424f2c7961a1a9959c64cc1235ea930118117549bdb651301e82baf6c6578706572696d656e74616cf564736f6c6343000510004068747470733a2f2f73332d75732d776573742d322e616d617a6f6e6177732e636f6d2f756461636974792d626c6f636b636861696e2f63617073746f6e652f",
  "source": "// SPDX-License-Identifier: MIT\r\npragma solidity >=0.5.0 <=0.9.0;\r\npragma experimental ABIEncoderV2;\r\n\r\n// TODO define a contract call to the zokrates generated solidity contract <Verifier> or <renamedVerifier>\r\nimport \"./verifier.sol\";\r\n\r\n// TODO define another contract named SolnSquareVerifier that inherits from your ERC721Mintable class\r\nimport \"./ERC721Mintable.sol\";\r\n//is CustomERC721Token, Verifier {\r\ncontract SolnSquareVerifier is CustomERC721Token {\r\n\r\n    \r\n    constructor (\r\n                    string memory name,\r\n                    string memory symbol\r\n                )\r\n                CustomERC721Token   (\r\n                                        name,\r\n                                        symbol\r\n                                    )\r\n                public\r\n    {\r\n\r\n    }\r\n    \r\n\r\n    //PVM 07/01/2021\r\n    // TODO define a solutions struct that can hold an index & an address\r\n    struct SolutionsStruct {\r\n        uint256 _index;\r\n        address _address;\r\n    }\r\n\r\n    //PVM 07/01/2021\r\n    // TODO define an array of the above struct\r\n    SolutionsStruct[] solutions;\r\n\r\n    //PVM 07/01/2021\r\n    // TODO define a mapping to store unique solutions submitted\r\n    mapping(uint256 => SolutionsStruct) submittedSolutions;\r\n\r\n    //PVM 07/01/2021\r\n    // TODO Create an event to emit when a solution is added\r\n    //event SolutionIsAdded(uint256 _index, address _address);\r\n    event SolutionIsAdded(SolutionsStruct solutionsStruct);\r\n\r\n    //PVM 07/01/2021\r\n    // TODO Create a function to add the solutions to the array and emit the event\r\n    function addSolution    (\r\n                            uint256 _index,\r\n                            address _address\r\n                            )\r\n                            public\r\n    {\r\n        /*\r\n        require(\r\n                !submittedSolutions[_index].address == _address,\r\n                'Solution already added'\r\n        );\r\n        */\r\n        SolutionsStruct memory solutionStruct = SolutionsStruct( _index, _address );\r\n        solutions.push(solutionStruct);\r\n        submittedSolutions[_index] = solutionStruct;\r\n\r\n        emit SolutionIsAdded(solutionStruct);\r\n    }\r\n\r\n\r\n    // TODO Create a function to mint new NFT only after the solution has been verified\r\n    //  - make sure the solution is unique (has not been used before)\r\n    //  - make sure you handle metadata as well as tokenSuplly\r\n\r\n    \r\n\r\n}",
  "sourcePath": "C:\\code\\blockchainUdacity\\Unit06\\final_project_blockchain_capstone\\Blockchain-Capstone\\eth-contracts\\contracts\\SolnSquareVerifier.sol",
  "compiler": {
    "name": "solc",
    "version": "0.5.16+commit.9c3226ce.Emscripten.clang"
  },
  "schemaVersion": "3.4.3",
  "updatedAt": "2022-01-09T18:23:50.954Z",
  "devdoc": {
    "methods": {
      "isApprovedForAll(address,address)": {
        "details": "Tells whether an operator is approved by a given owner",
        "params": {
          "operator": "operator address which you want to query the approval of",
          "owner": "owner address which you want to query the approval of"
        },
        "return": "bool whether the given operator is approved by the given owner"
      },
      "setApprovalForAll(address,bool)": {
        "details": "Sets or unsets the approval of a given operator An operator is allowed to transfer all tokens of the sender on their behalf",
        "params": {
          "approved": "representing the status of the approval to be set",
          "to": "operator address to set the approval"
        }
      },
      "supportsInterface(bytes4)": {
        "details": "implement supportsInterface(bytes4) using a lookup table"
      },
      "tokenByIndex(uint256)": {
        "details": "Gets the token ID at a given index of all the tokens in this contract Reverts if the index is greater or equal to the total number of tokens",
        "params": {
          "index": "uint256 representing the index to be accessed of the tokens list"
        },
        "return": "uint256 token ID at the given index of the tokens list"
      },
      "tokenOfOwnerByIndex(address,uint256)": {
        "details": "Gets the token ID at a given index of the tokens list of the requested owner",
        "params": {
          "index": "uint256 representing the index to be accessed of the requested tokens list",
          "owner": "address owning the tokens list to be accessed"
        },
        "return": "uint256 token ID at the given index of the tokens list owned by the requested address"
      },
      "totalSupply()": {
        "details": "Gets the total amount of tokens stored by the contract",
        "return": "uint256 representing the total amount of tokens"
      }
    }
  },
  "userdoc": {
    "methods": {}
  }
}